:020000040800F2
:1000000000000120DD100008410F0008430F000828
:10001000450F0008470F0008490F000800000000C6
:100020000000000000000000000000004B0F00086E
:100030004D0F0008000000004F0F0008510F00088E
:1000400025110008251100082511000825110008B8
:1000500025110008251100082511000825110008A8
:100060002511000825110008251100082511000898
:100070002511000825110008251100082511000888
:100080002511000825110008251100082511000878
:100090002511000825110008251100082511000868
:1000A0002511000825110008251100082511000858
:1000B0002511000825110008251100082511000848
:1000C0002511000825110008251100082511000838
:1000D0002511000825110008251100082511000828
:1000E0002511000825110008251100082511000818
:1000F0002511000825110008251100082511000808
:1001000025110008251100082511000825110008F7
:1001100025110008251100082511000825110008E7
:1001200025110008251100082511000825110008D7
:1001300000000000000000000000000000000000BF
:1001400000000000000000000000000000000000AF
:10015000000000000000000000000000000000009F
:10016000000000000000000000000000000000008F
:10017000000000000000000000000000000000007F
:10018000000000000000000000000000000000006F
:10019000000000000000000000000000000000005F
:1001A000000000000000000000000000000000004F
:1001B000000000000000000000000000000000003F
:1001C000000000000000000000000000000000002F
:1001D000000000000000000000000000000000001F
:0401E0005FF8E0F1F3
:1001E40010B5054C237833B9044B13B10448AFF36D
:1001F40000800123237010BD700000200000000067
:10020400581A000808B5034B1BB103490348AFF360
:10021400008008BD0000000074000020581A000887
:100224007047000038B50E4B054618784FF47A73C2
:10023400B3FBF0F30B4A1068B0FBF3F000F080F866
:10024400044658B90F2D09D8024629464FF0FF300D
:1002540000F042F8044B20461D6038BD012038BD33
:10026400000000200800002004000020074A08B510
:100274001368032043F01003136000F01BF8002000
:10028400FFF7D0FFFFF7CCFF002008BD002002409D
:10029400034A044B11681B780B441360704700BF7A
:1002A4009800002000000020014B1868704700BF30
:1002B40098000020074A0002D36800F4E06023F4A9
:1002C400E0631B041B0C43F0BF6343F4003303439C
:1002D400D360704700ED00E0174B30B5DC68C4F321
:1002E4000224C4F10703251D042B28BF0423062D73
:1002F4004FF0010598BF002405FA03F303F1FF331F
:1003040088BF033C1940A14005FA04F4013C224093
:10031400002842EA01024FEA0212AFBF00F1604036
:10032400064B00F00F00D2B2A5BFD2B200F5614077
:100334001A5480F8002330BD00ED00E014ED00E015
:100344000138B0F1807F0AD2F021064B064A58608A
:1003540082F823100020072298601A607047012059
:10036400704700BF10E000E000ED00E02DE9F74F1A
:10037400002216466C4F6D4BDFF8B8E1DFF8B8C1C8
:100384004FF001080C6808FA06F808EA0404A045CE
:1003940040F085804D68122D00F0B78000F28D800A
:1003A400022D00F0AF8000F28180002D00F09180DA
:1003B400012D00F0A5804FF00F09FF2C93BF82465A
:1003C40006F18045083DD0F800B092BFB500D0F8E2
:1003D40004B0AD0009FA05F82BEA080802FA05F59D
:1003E40088BF00F1040A48EA0505CAF80050D1F8AC
:1003F40004A01AF0805F52D0BD6926F0030845F0CE
:100404000105BD61BD6908F1804805F0010501954C
:1004140008F5803806F0030B019D4FEA8B0BD8F8E2
:10042400085009FA0BF925EA0909414DA84271D08F
:1004340005F58065A8426FD005F58065A8426DD0AA
:1004440005F58065A8426BD005F58065A84269D0A2
:1004540070450CBF0525062505FA0BF545EA090587
:10046400C8F808501D681AF4803F14BF2543A543FB
:100474001D605D681AF4003F14BF2543A5435D6009
:100484009D681AF4801F14BF2543A5439D60DD6851
:100494001AF4001F14BF2C4325EA0404DC6001365F
:1004A400102E7FF46DAF03B0BDE8F08F032D25D07F
:1004B400112D80D1CA6804327DE7654509D012D870
:1004C400DFF878904D4504D009F580394D457FF427
:1004D40072AF8A68E2B1012A0CBFC0F81080C0F87C
:1004E4001480082267E7DFF858904D45F1D009F5EC
:1004F40080394D45EDD0A9F58019E7E700225AE788
:10050400CA6858E7CA68083255E7CA680C3252E725
:10051400042250E700259FE701259DE702259BE77C
:10052400032599E7042597E70010024000040140E1
:1005340000080140001C01400000211000001110BF
:10054400000031100AB1016170470904FBE70000A3
:1005540003682DE9F341DB07054610D42B689F0798
:100564005ED42B68190700F195802B685A0700F1B7
:10057400BF80EA69002A40F02D81002014E0904CED
:10058400636803F00C03042B07D0636803F00C03C7
:10059400082B0CD16368DE0309D523689C03DDD5E1
:1005A4006B68002BDAD1012002B0BDE8F0816B68E2
:1005B400B3F5803F10D1236843F480332360FFF701
:1005C40073FE064623689803C8D4FFF76DFE801BAC
:1005D4006428F7D90320E7E79BB9236823F4803321
:1005E4002360236823F480232360FFF75DFE06461F
:1005F40023689903B2D5FFF757FE801B6428F7D907
:10060400E8E7B3F5A02F236803D143F480232360E4
:10061400D1E723F480332360236823F48023CDE7D8
:10062400674C636813F00C0F07D0636803F00C0386
:10063400082B10D16368DA030DD423689B0702D515
:100644002B69012BAFD123686A6923F0F80343EACD
:10065400C203236085E72A695A4B6AB101221A60F2
:10066400FFF722FE064623689F07ECD4FFF71CFE23
:10067400801B0228F7D9ADE71A60FFF715FE06467E
:10068400236898077FF56DAFFFF70EFE801B0228E5
:10069400F6D99FE7AA694A4C4B4BDAB101221A609A
:1006A400FFF702FE0646636A9B070DD54FF4FA5224
:1006B400464B1B68B3FBF2F3019300BF019B5A1E28
:1006C4000192002BF9D150E7FFF7EEFD801B0228C1
:1006D400E9D97FE71A60FFF7E7FD0646636A9F07DB
:1006E4007FF543AFFFF7E0FD801B0228F6D971E7E1
:1006F400334CE369D80024D40127E36943F08053E1
:10070400E361E36903F080530093009B304E336848
:10071400D90518D5EB68012B26D1236A43F00103D0
:100724002362FFF7C1FD41F288368046236A9B07A6
:100734003FD5002F3FF41DAFE36923F08053E361FD
:1007440017E70027E2E7336843F480733360FFF769
:10075400ABFD80463368DA05DCD4FFF7A5FDA0EBDA
:1007640008006428F6D935E7ABB9236A41F2883822
:1007740023F001032362236A23F004032362FFF7B7
:1007840093FD0646236A9807D3D5FFF78DFD801B9A
:100794004045F7D91EE7052B236A03D143F0040330
:1007A4002362BAE723F001032362236A23F00403DC
:1007B400B6E7FFF779FDA0EB0800B042B6D909E728
:1007C400001002400000424280044242080000201F
:1007D40000700040224C636803F00C03082B3FF4C4
:1007E400E2AE00231F4E022A33602BD1FFF75CFDDB
:1007F4000746236899011FD42B6AB3F5803F05D1BE
:100804006268A96822F400320A436260696A626815
:100814000B4322F474121343636001233360FFF724
:1008240043FD054623689A013FF5A7AEFFF73CFD5B
:10083400401B0228F6D9CDE6FFF736FDC01B02287F
:10084400D7D9C7E6FFF730FD054623689B017FF53E
:1008540094AEFFF729FD401B0228F6D9BAE600BF83
:10086400001002406000424230B5194B87B002AC20
:1008740003F11005224618685968083303C2AB42D5
:100884001446F7D101238DF80430022311498DF861
:1008940005304B6803F00C02082A17D1C3F38342D6
:1008A40006A80244DB0312F8102C0CD54B680A4846
:1008B400C3F34043504306AA134413F8143CB0FB5B
:1008C400F3F007B030BD05485043FAE70248F8E7B3
:1008D400701A00080010024000127A0000093D005E
:1008E400544A2DE9F0411368054603F007038B428F
:1008F4000E462AD329688C0734D4CA0747D44D4AF4
:10090400136803F007039E42C0F082802A684A4CB1
:1009140012F0040F40F08780130706D563682A6934
:1009240023F4605343EAC2036360FFF79DFF6368E7
:10093400424AC3F30313D35CD840414B18600020F0
:10094400FFF770FC0020BDE8F081136823F0070373
:100954000B431360136803F007039942CAD00120C4
:10096400BDE8F081344B11F0040F1EBF5A6842F405
:10097400E0625A60080742BF5A6842F460525A6003
:100984005A68A86822F0F00202435A60B5E76A6820
:10099400294C012A23681CD113F4003FDFD063687B
:1009A40041F2883823F0030313436360FFF77CFCB0
:1009B4006B680746012B14D1636803F00C03042B06
:1009C4009DD0FFF771FCC01B4045F5D90320BDE85D
:1009D400F081022A02D113F0007FDFE713F0020F47
:1009E400DCE7022B0FD1636803F00C03082B86D0DD
:1009F400FFF75AFCC01B4045F5D9E7E7FFF754FC65
:100A0400C01B4045E2D8636813F00C0FF6D176E7BB
:100A1400136823F0070333431360136803F00703D9
:100A24009E429CD172E76368E96823F4E0630B4358
:100A3400636071E70020024000100240871A00083A
:100A440008000020044B054A5B68C3F30223D35C0F
:100A5400034A1068D840704700100240971A0008F3
:100A640008000020044B054A5B68C3F3C223D35C2F
:100A7400034A1068D840704700100240971A0008D3
:100A84000800002010B50446002834D000238362F7
:100A940090F851300BB900F015FA0223216884F85C
:100AA40051300B68A06823F040030B606368A269AF
:100AB4000343E06803432069034360690343E06937
:100AC4000343206A0343A06A034302F40070034310
:100AD4000B60120C636A02F004021A43E36A4A6070
:100AE4000B61CB69002023F40063CB6101236065B3
:100AF40084F8513010BD012010BD00002DE9F047ED
:100B04000568C2682B69016923F4405313432B61C0
:100B14008368EA680B43416922F4B05222F00C0264
:100B24000B431343EB606B69826923F440731343F3
:100B34006B61404B81469D424FF0190446D1FFF74B
:100B440091FF04FB00F3D9F804604FF06408B60089
:100B5400B3FBF6F3B3FBF8F31E01FFF783FF604327
:100B6400D9F804309B00B0FBF3F7FFF77BFF604339
:100B7400D9F804309B00B0FBF3F3B3FBF8F308FBA4
:100B840013731B013233B3FBF8F303F0F007FFF7E1
:100B940069FF6043D9F804209200B0FBF2FAFFF732
:100BA40061FF6043D9F804309B00B0FBF3F3B3FB5F
:100BB400F8F308FB13A31B013233B3FBF8F303F080
:100BC4000F033B433344AB60BDE8F087FFF73AFFC4
:100BD40004FB00F3D9F804604FF06408B600B3FBDB
:100BE400F6F3B3FBF8F31E01FFF72CFF6043D9F8CB
:100BF40004309B00B0FBF3F7FFF724FF6043D9F800
:100C040004309B00B0FBF3F3B3FBF8F308FB13735E
:100C14001B013233B3FBF8F303F0F007FFF712FFC5
:100C24006043D9F804209200B0FBF2FAFFF70AFF00
:100C3400B7E700BF00380140F8B504460E46174632
:100C44001D4621680B6836EA030301D10020F8BD74
:100C54006B1CF7D095B923680320DA6822F4D072AC
:100C6400DA605A6922F001025A61202384F839308B
:100C740084F83A30002384F83830F8BDFFF714FBC9
:100C8400C01B8542DDD2E6E710B5044640B390F8B8
:100C9400393003F0FF021BB980F8382000F0D0F996
:100CA4002423226884F83930D368204623F400537F
:100CB400D360FFF723FF236800201A6922F49042CF
:100CC4001A615A6922F02A025A61DA6842F400521F
:100CD400DA602023E06384F8393084F83A3010BDB8
:100CE400012010BD2DE9F0411F4690F8393004462B
:100CF400202B0D4690464ED1002949D0002A47D0DA
:100D040090F83830012B46D0012380F83830002386
:100D1400C363212380F83930FFF7C6FA0646A4F8E6
:100D24002480A4F82680E38C9BB26BB93B46324600
:100D340040212046FFF780FFA8B9202384F838001B
:100D440084F83930BDE8F081E38C3246013B9BB234
:100D5400E384A3688021B3F5805F20463B460ED12F
:100D6400FFF76AFF10B10320BDE8F0812B882268E9
:100D7400C3F308035360236943B90235D3E7FFF78C
:100D84005BFF0028EFD123682A785A600135CAE74F
:100D94000120BDE8F0810220BDE8F08110B590B0DB
:100DA4002822002106A800F0E1F90021142201A85C
:100DB40000F0DCF94FF480330122022407930E93F0
:100DC4004FF4E01306A806920A920F930D94FFF7CE
:100DD400BFFB0F234FF4806201930023214601A837
:100DE4000294039304920593FFF77AFD10B010BDAB
:100DF400102580B588B0FFF739FAFFF7CFFF2A46F0
:100E040000210DEB050000F0B1F9254B4FF4C05162
:100E14009A69244842F020029A619A69002402F0F7
:100E240020020192019A9A69012642F008029A610D
:100E34009A69022702F008020292029A9A6942F021
:100E440004029A619B69002203F004030393039B49
:100E5400FFF778FB4FF4C0530DEB050111480493E1
:100E6400059606940797FFF781FA4FF482730E48AC
:100E74000E4A846080E80C004FF4007383610A23F7
:100E8400C460C36207614661C561046244628462EE
:100E9400FFF7F8FD00F0B8F8054800F0CBF9FEE7DD
:100EA40000100240000C01409C000020003800406B
:100EB400801A000810B50446C0B200F0FDF82046C0
:100EC40010BD704710B5044686B01022002102A858
:100ED40000F04CF92268174B9A4228D103F5EC3301
:100EE400DA6902A942F48042DA61DA69124802F44A
:100EF40080420092009A9A6942F008029A619B69C2
:100F040003F008030193019B4FF42043029302234F
:100F1400039303230593FFF729FA4FF480430293C5
:100F2400002302A9044803930493FFF71FFA06B0B1
:100F340010BD00BF00380040000C01407047FEE7C0
:100F4400FEE7FEE7FEE7704770477047FFF7A0B97A
:100F54000020704770B50E4615460C46A31B9D42F3
:100F640001DC284670BD14F8010BFFF7A3FFF5E779
:100F7400094B0246196809B9084919606946186895
:100F840002448A4281BF0C22054B4FF0FF301A60A5
:100F940098BF1A60704700BF8C0000203801002001
:100FA400340100204FF0FF3070474FF4005300200D
:100FB4004B60704701207047002070470F4B1A6840
:100FC40042F001021A6059680D4A0A405A601A68D0
:100FD40022F0847222F480321A601A6822F4802289
:100FE4001A605A6822F4FE025A604FF41F029A6093
:100FF4004FF00062034B9A60704700BF001002403C
:101004000000FFF800ED00E008B54FF4E13E0A48A7
:101014000A4B0C2280E80840002342618360C360CD
:1010240003618361C361FFF72FFE18B1BDE8084077
:10103400FFF747BF08BD00BFF4000020003801409F
:1010440010B5044686B01022002102A800F08EF8E4
:101054002268174B9A4228D103F558439A6902A98A
:1010640042F480429A619A69124802F480420092E2
:10107400009A9A6942F004029A619B6903F004039E
:101084000193019B4FF40073029302230393032300
:101094000593FFF76BF94FF480630293002302A9D1
:1010A400044803930493FFF761F906B010BD00BF31
:1010B400003801400008014007B502A901F8010DFC
:1010C4004FF6FF7301220348FFF70CFE03B05DF8EF
:1010D40004FB00BFF4000020002103E00B4B5B582D
:1010E400435004310A480B4B42189A42F6D30A4A39
:1010F40002E0002342F8043B084B9A42F9D3FFF77D
:101104005DFF00F00FF8FFF773FE70470C1B00083B
:101114000000002070000020700000203801002032
:10112400FEE7000070B500250C4E0D4CA41BA41066
:10113400A54209D100F08EFC00250A4E0A4CA41BDE
:10114400A410A54205D170BD56F825309847013545
:10115400EEE756F8253098470135F2E7041B0008FE
:10116400041B0008041B0008081B00080346024473
:10117400934200D1704703F8011BF9E770B50E469E
:10118400054618B183690BB900F00EFAAB69AC6877
:1011940013B9284600F008FA234B9C4217D16C6817
:1011A400A3891B071DD52369DBB1013EA36816F88B
:1011B400011F013BA360E9B9002B2EDA22460A2164
:1011C400284600F03FF8013011D00A2070BD174BBB
:1011D4009C4201D1AC68E3E7154B9C4208BFEC6824
:1011E400DEE72146284600F07FF80028DDD04FF0E6
:1011F400FF3070BD002B04DAA269934206DB0A2992
:1012040004D023685A1C22601970CFE7224628466E
:1012140000F018F80130C9D1E9E70A2023685A1C04
:101224002260187070BD00BFC01A0008E01A0008E0
:10123400A01A0008024B01461868FFF79FBF00BFC1
:101244000C000020F8B50E461446054618B1836913
:101254000BB900F0A9F9214B9C422AD16C68A3690F
:10126400A360A3891A072ED5236963B32369206871
:10127400F6B2C01A63693746984204DB2146284611
:1012840000F028F928BBA3680130013BA360236860
:101294005A1C22601E706369984204D0A389DB073C
:1012A40019D50A2E17D12146284600F013F990B11A
:1012B4000FE00B4B9C4201D1AC68D0E7094B9C4238
:1012C40008BFEC68CBE72146284600F00DF800285B
:1012D400CCD04FF0FF373846F8BD00BFC01A000825
:1012E400E01A0008A01A0008324B70B51D680646C3
:1012F4000C4625B1AB6913B9284600F055F92E4BBD
:101304009C420FD16C68B4F90C309AB215072CD4F6
:10131400D00611D40922326043F04003A3814FF078
:10132400FF3070BD254B9C4201D1AC68EBE7244BE8
:101334009C4208BFEC68E6E7510712D5616B41B1E6
:1013440004F14403994202D0304600F01BFA002312
:101354006363A38923F02403A381002363602369C7
:101364002360A38943F00803A38123694BB9A389AC
:1013740003F42073B3F5007F03D02146304600F018
:10138400C1F9A28912F001030CD00023A3606369A0
:101394005B42A361236953B9B4F90C3013F08000A4
:1013A400BAD170BD920758BF6369A360F2E7002009
:1013B400F7E700BF0C000020C01A0008E01A00087C
:1013C400A01A00088A892DE9F041054610070C4649
:1013D4005AD44B68002B05DC0B6C002B02DC00207C
:1013E400BDE8F081E66A002EF9D0002312F48052A1
:1013F4002F682B6033D0606DA3895A0705D56368C5
:10140400C01A636B0BB1236CC01A00230246E66A50
:10141400216A2846B047431CA38906D129681D299F
:101424004BD82B4ACA40D60747D5002262602269AE
:10143400D904226004D5421C01D12B6803B960652C
:10144400616B2F600029CAD004F14403994202D091
:10145400284600F097F900206063BDE8F081216A16
:1014640001232846B047411CC6D12B68002BC3D0AA
:101474001D2B01D0162B01D12F60B0E7A38943F0B7
:101484004003A381BDE8F0810F69002FA7D0930723
:1014940018BF00230E6808BF4B69A6EB07080F604E
:1014A4008B60B8F1000F9ADD43463A46216A28461C
:1014B400A66AB047002807DCA38943F04003A38150
:1014C4004FF0FF30BDE8F0810744A8EB0008E8E7DF
:1014D4000100402038B50B6905460C46DBB118B154
:1014E40083690BB900F060F80C4B9C4209D16C681D
:1014F400B4F90C307BB121462846BDE83840FFF7EB
:1015040061BF074B9C4201D1AC68F1E7054B9C429B
:1015140008BFEC68ECE7002038BD00BFC01A000823
:10152400E01A0008A01A0008014900F0A9B800BF99
:10153400D9140008002310B5044603604360836097
:1015440081814366C2810361436183611946082234
:101554005C30FFF70BFE054B24626362044BA3620D
:10156400044BE362044B236310BD00BFFD18000865
:101574001F190008571900087B19000870B5682561
:101584004A1E55430E4605F1740100F047F904461E
:1015940040B1002180E842000C30A06005F16802EF
:1015A400FFF7E4FD204670BD836910B5044633BBE4
:1015B4008364C3640365124B124A1B6882629842B7
:1015C40004BF0123836100F01FF86060204600F02F
:1015D4001BF8A060204600F017F80022E060042108
:1015E4006068FFF7A7FF01220921A068FFF7A2FFA7
:1015F40002221221E068FFF79DFF0123A36110BDC1
:10160400001B00082D150008F8B51C4B07461E6882
:10161400B36913B93046FFF7C7FF4836B468736837
:10162400013B03D5336833B13668F7E7B4F90C509E
:101634006DB16834F4E704213846FFF79FFF30604A
:101644000028F1D10C2304463B602046F8BD4FF638
:10165400FF73E38101236566A3812560A56065604E
:1016640025616561A5610822294604F15C00FFF744
:101674007DFD6563A563A564E564E6E7001B0008DA
:101684002DE9F84380468946002600F1480414B940
:101694003046BDE8F883A5686768013F01D5246832
:1016A400F5E7AB89012B07D9B5F90E30013303D027
:1016B40029464046C84706436835EEE770B50E46EE
:1016C400B1F90E1090B0002914461D4607DA002324
:1016D4002B60B3891A0610D44FF480630EE001AA7C
:1016E40000F070F90028F2DB029A02F47042A2F5CD
:1016F40000535A425A412A60EEE7402300202360F7
:1017040010B070BD8B8973B59D0706460C4607D58E
:1017140004F14703236023610123636102B070BDB8
:1017240001AB6A46FFF7CAFF00990546304600F050
:1017340075F848B9B4F90C309A05EFD423F00303D3
:1017440043F00203A381E3E70D4BB362A389206056
:1017540043F08003A381009B20616361019B5BB123
:10176400B4F90E10304600F03FF928B1A38923F0F4
:10177400030343F00103A381A3891D43A581CDE79E
:101784002D15000838B50546002943D051F8043C0E
:101794000C1F002BB8BFE41800F048F91E4A136868
:1017A400104633B9636014602846BDE8384000F041
:1017B4003EB9A3420BD921686218934201BF1A684B
:1017C4005B685218226063600460EDE713465A6850
:1017D4000AB1A242FAD919685818A0420BD120685C
:1017E4000144581882421960DED1106852680144DD
:1017F40019605A60D8E702D90C232B60D4E720681B
:1018040021188A4201BF1168526809182160626078
:101814005C60C9E738BD00BF9000002070B5CD1CE6
:1018240025F0030508350C2D38BF0C25002D064680
:1018340001DBA94203D90C233360002070BD00F002
:10184400F5F8234A1468214691B9224C23681BB940
:10185400304600F041F820602946304600F03CF85C
:10186400431C26D10C233046336000F0E0F8E4E753
:101874000B685B1B1AD40B2B0FD90B60CC18CD5003
:10188400304600F0D4F804F10B00231D20F00700CB
:10189400C31A1BD05A42E25070BD8C420BBF63681E
:1018A4004B681360636018BF0C46E9E70C4649684F
:1018B400CAE7C41C24F00304A04205D0211A304610
:1018C40000F00AF80130CDD02560D9E770BD00BF23
:1018D400900000209400002038B50023054C0546F4
:1018E40008462360FFF744FB431C02D1236803B17D
:1018F4002B6038BD3401002010B50C46B1F90E1030
:1019040000F096F80028ABBF636DA3891B1823F47D
:101914008053ACBF6365A38110BD2DE9F0411F4620
:101924008B890546DB050C46164605D502230022A5
:10193400B1F90E1000F068F8A389324623F48053FD
:10194400A381B4F90E103B462846BDE8F04100F0EF
:1019540017B810B50C46B1F90E1000F055F8431C39
:10196400A38915BF606523F4805343F48053A38196
:1019740018BFA38110BDB1F90E1000F013B8000018
:1019840038B50546084611460022054C22601A4621
:10199400FFF7E0FA431C02D1236803B12B6038BD82
:1019A4003401002038B50023054C05460846236061
:1019B400FFF7F8FA431C02D1236803B12B6038BD4A
:1019C4003401002038B50023064C0546084611466C
:1019D4002360FFF7EAFA431C02D1236803B12B60AA
:1019E40038BD00BF3401002038B50023054C05463E
:1019F40008462360FFF7DEFA431C02D1236803B1D3
:101A04002B6038BD3401002038B505460846114620
:101A14000022054C22601A46FFF7CEFA431C02D17D
:101A2400236803B12B6038BD340100207047704730
:101A340038B50546084611460022054C22601A4670
:101A4400FFF786FA431C02D1236803B12B6038BD2B
:101A540034010020F8B500BFF8BC08BC9E467047AE
:0C1A6400F8B500BFF8BC08BC9E467047F7
:101A700002030405060708090A0B0C0D0E0F1010CF
:101A800061626C653F0D0000000000000000000175
:101A90000203040607080900000000010203040015
:101AA0000000000000000000000000000000000036
:101AB0000000000000000000000000000000000026
:101AC0000000000000000000000000000000000016
:101AD0000000000000000000000000000000000006
:101AE00000000000000000000000000000000000F6
:101AF00000000000000000000000000000000000E6
:041B000010000020B1
:041B040009020008CA
:041B0800E5010008EB
:101B0C00010000001000000000A24A041000002098
:101B1C0000000000C01A0008E01A0008A01A000813
:101B2C0000000000000000000000000000000000A9
:101B3C000000000000000000000000000000000099
:101B4C000000000000000000000000000000000089
:101B5C000000000000000000000000000000000079
:101B6C000000000000000000000000000000000069
:04000005080010DD02
:00000001FF
