:020000040800F2
:1000000000000120E9270008A51F0008A71F00081D
:10001000A91F0008AB1F0008AD1F0008000000006A
:10002000000000000000000000000000AF1F0008FA
:10003000B11F000800000000B31F0008B51F000832
:10004000312800083128000831280008312800082C
:10005000312800083128000831280008312800081C
:10006000312800083128000831280008312800080C
:1000700031280008312800083128000831280008FC
:1000800031280008312800083128000831280008EC
:1000900031280008312800083128000831280008DC
:1000A00031280008312800083128000831280008CC
:1000B00031280008312800083128000831280008BC
:1000C00031280008312800083128000831280008AC
:1000D000312800083128000831280008312800089C
:1000E000312800083128000831280008312800088C
:1000F000312800083128000831280008312800087C
:10010000312800083128000831280008312800086B
:10011000312800083128000831280008312800085B
:10012000312800083128000831280008312800084B
:1001300000000000000000000000000000000000BF
:1001400000000000000000000000000000000000AF
:10015000000000000000000000000000000000009F
:10016000000000000000000000000000000000008F
:10017000000000000000000000000000000000007F
:10018000000000000000000000000000000000006F
:10019000000000000000000000000000000000005F
:1001A000000000000000000000000000000000004F
:1001B000000000000000000000000000000000003F
:1001C000000000000000000000000000000000002F
:1001D000000000000000000000000000000000001F
:0401E0005FF8E0F1F3
:1001E80010B5054C237833B9044B13B10448AFF369
:1001F80000800123237010BD74000020000000005F
:100208005C37000808B5034B1BB103490348AFF33B
:10021800008008BD00000000780000205C3700085E
:1002280081F0004102E000BF83F0004330B54FEA9F
:1002380041044FEA430594EA050F08BF90EA020F0C
:100248001FBF54EA000C55EA020C7FEA645C7FEA9F
:10025800655C00F0E2804FEA5454D4EB5555B8BFC2
:100268006D420CDD2C4480EA020281EA030382EA33
:10027800000083EA010180EA020281EA0303362DC5
:1002880088BF30BD11F0004F4FEA01314FF4801C98
:100298004CEA113102D0404261EB410113F0004FAA
:1002A8004FEA03334CEA133302D0524263EB430361
:1002B80094EA050F00F0A780A4F10104D5F1200EFF
:1002C8000DDB02FA0EFC22FA05F2801841F100015A
:1002D80003FA0EF2801843FA05F359410EE0A5F12E
:1002E80020050EF1200E012A03FA0EFC28BF4CF05F
:1002F800020C43FA05F3C01851EBE37101F0004515
:1003080007D54FF0000EDCF1000C7EEB00006EEB21
:100318000101B1F5801F1BD3B1F5001F0CD34908AB
:100328005FEA30004FEA3C0C04F101044FEA445202
:1003380012F5800F80F09A80BCF1004F08BF5FEA89
:10034800500C50F1000041EB045141EA050130BD69
:100358005FEA4C0C404141EB010111F4801FA4F10C
:100368000104E9D191F0000F04BF01460020B1FA61
:1003780081F308BF2033A3F10B03B3F120020CDA99
:100388000C3208DD02F1140CC2F10C0201FA0CF077
:1003980021FA02F10CE002F11402D8BFC2F1200CDC
:1003A80001FA02F120FA0CFCDCBF41EA0C01904092
:1003B800E41AA2BF01EB0451294330BD6FEA0404DB
:1003C8001F3C1CDA0C340EDC04F11404C4F12002C6
:1003D80020FA04F001FA02F340EA030021FA04F3D8
:1003E80045EA030130BDC4F10C04C4F1200220FA2F
:1003F80002F001FA04F340EA0300294630BD21FA6D
:1004080004F0294630BD94F0000F83F4801306BF32
:1004180081F480110134013D4EE77FEA645C18BF26
:100428007FEA655C29D094EA050F08BF90EA020FBD
:1004380005D054EA000C04BF1946104630BD91EAB5
:10044800030F1EBF0021002030BD5FEA545C05D1B8
:100458004000494128BF41F0004130BD14F58004F7
:100468003CBF01F5801130BD01F0004545F0FE416B
:1004780041F470014FF0000030BD7FEA645C1ABFA0
:10048800194610467FEA655C1CBF0B46024650EAD7
:10049800013406BF52EA033591EA030F41F4002103
:1004A80030BD00BF90F0000F04BF0021704730B589
:1004B8004FF4806404F132044FF000054FF000015E
:1004C80050E700BF90F0000F04BF0021704730B51F
:1004D8004FF4806404F1320410F0004548BF4042F4
:1004E8004FF000013EE700BF42004FEAE2014FEA49
:1004F80031014FEA02701FBF12F07F4393F07F4F24
:1005080081F06051704792F0000F14BF93F07F4F55
:10051800704730B54FF4607401F0004521F0004198
:1005280020E700BF50EA010208BF704730B54FF01E
:1005380000050AE050EA010208BF704730B511F023
:10054800004502D5404261EB41014FF4806404F15B
:1005580032045FEA915C3FF4DCAE4FF003025FEADD
:10056800DC0C18BF03325FEADC0C18BF033202EB65
:10057800DC02C2F1200300FA03FC20FA02F001FABF
:1005880003FE40EA0E0021FA02F11444C1E600BF5E
:1005980070B54FF0FF0C4CF4E06C1CEA11541DBF11
:1005A8001CEA135594EA0C0F95EA0C0F00F0DEF8DC
:1005B8002C4481EA030621EA4C5123EA4C5350EAC1
:1005C800013518BF52EA033541F4801143F4801312
:1005D80038D0A0FB02CE4FF00005E1FB02E506F0A3
:1005E8000042E0FB03E54FF00006E1FB03569CF0F8
:1005F800000F18BF4EF0010EA4F1FF04B6F5007FFE
:1006080064F5407404D25FEA4E0E6D4146EB06066F
:1006180042EAC62141EA55514FEAC52040EA5E50F8
:100628004FEACE2EB4F1FD0C88BFBCF5E06F1ED8A2
:10063800BEF1004F08BF5FEA500E50F1000041EBD9
:10064800045170BD06F0004646EA010140EA020086
:1006580081EA0301B4EB5C04C2BFD4EB0C0541EAA8
:10066800045170BD41F480114FF0000E013C00F3BD
:10067800AB8014F1360FDEBF002001F0004170BDE1
:10068800C4F10004203C35DA0C341BDC04F11404FA
:10069800C4F1200500FA05F320FA04F001FA05F286
:1006A80040EA020001F0004221F0004110EBD37053
:1006B80021FA04F642EB06015EEA430E08BF20EA7F
:1006C800D37070BDC4F10C04C4F1200500FA04F322
:1006D80020FA05F001FA04F240EA020001F00041B4
:1006E80010EBD37041F100015EEA430E08BF20EA27
:1006F800D37070BDC4F1200500FA05F24EEA020E6F
:1007080020FA04F301FA05F243EA020321FA04F09D
:1007180001F0004121FA04F220EA020000EBD37054
:100728005EEA430E08BF20EAD37070BD94F0000F54
:100738000FD101F00046400041EB010111F4801F88
:1007480008BF013CF7D041EA060195F0000F18BF39
:10075800704703F00046520043EB030313F4801F75
:1007680008BF013DF7D043EA0603704794EA0C0F2F
:100778000CEA135518BF95EA0C0F0CD050EA410645
:1007880018BF52EA4306D1D181EA030101F00041C2
:100798004FF0000070BD50EA410606BF10461946EA
:1007A80052EA430619D094EA0C0F02D150EA0136F6
:1007B80013D195EA0C0F05D152EA03361CBF104637
:1007C80019460AD181EA030101F0004141F0FE41D6
:1007D80041F470014FF0000070BD41F0FE4141F45A
:1007E800780170BD70B54FF0FF0C4CF4E06C1CEA5A
:1007F80011541DBF1CEA135594EA0C0F95EA0C0F0F
:1008080000F0A7F8A4EB050481EA030E52EA0335C9
:100818004FEA013100F088804FEA03334FF08055EA
:1008280045EA131343EA12634FEA022245EA111517
:1008380045EA10654FEA00260EF000419D4208BFC8
:10084800964244F1FD0404F5407402D25B084FEA75
:100858003202B61A65EB03055B084FEA32024FF421
:1008680080104FF4002CB6EB020E75EB030E22BF7E
:10087800B61A754640EA0C005B084FEA3202B6EB3E
:10088800020E75EB030E22BFB61A754640EA5C00ED
:100898005B084FEA3202B6EB020E75EB030E22BF7D
:1008A800B61A754640EA9C005B084FEA3202B6EB7E
:1008B800020E75EB030E22BFB61A754640EADC003D
:1008C80055EA060E18D04FEA051545EA16754FEA9F
:1008D80006164FEAC30343EA52734FEAC2025FEABD
:1008E8001C1CC0D111F4801F0BD141EA00014FF04C
:1008F80000004FF0004CB6E711F4801F04BF01431D
:100908000020B4F1FD0C88BFBCF5E06F3FF6AFAE38
:10091800B5EB030C04BFB6EB020C5FEA500C50F1C8
:10092800000041EB045170BD0EF0004E4EEA11314B
:1009380014EB5C04C2BFD4EB0C0541EA045170BD52
:1009480041F480114FF0000E013C90E645EA060E96
:100958008DE60CEA135594EA0C0F08BF95EA0C0FC4
:100968003FF43BAF94EA0C0F0AD150EA01347FF40C
:1009780034AF95EA0C0F7FF425AF104619462CE7E3
:1009880095EA0C0F06D152EA03353FF4FDAE104646
:10099800194622E750EA410618BF52EA43067FF497
:1009A800C5AE50EA41047FF40DAF52EA43057FF427
:1009B800EBAE12E74FF0FF3C06E000BF4FF0010C32
:1009C80002E000BF4FF0010C4DF804CD4FEA410C96
:1009D8007FEA6C5C4FEA430C18BF7FEA6C5C1BD063
:1009E80001B050EA410C0CBF52EA430C91EA030FE4
:1009F80002BF90EA020F0020704710F1000F91EA41
:100A0800030F58BF994208BF90422CBFD8176FEA0E
:100A1800E37040F0010070474FEA410C7FEA6C5CDC
:100A280002D150EA013C07D14FEA430C7FEA6C5CE3
:100A3800D6D152EA033CD3D05DF8040B704700BF0F
:100A48008446104662468C461946634600E000BF5D
:100A580001B5FFF7B7FF002848BF10F1000F01BD2F
:100A68004DF808EDFFF7F4FF0CBF012000205DF8FA
:100A780008FB00BF4DF808EDFFF7EAFF34BF01207F
:100A880000205DF808FB00BF4DF808EDFFF7E0FF18
:100A980094BF012000205DF808FB00BF4DF808ED69
:100AA800FFF7CEFF94BF012000205DF808FB00BFD0
:100AB8004DF808EDFFF7C4FF34BF012000205DF8B2
:100AC80008FB00BF4FEA410212F5001215D211D5FA
:100AD8006FF47873B3EB625212D94FEAC12343F033
:100AE800004343EA505311F0004F23FA02F018BFB5
:100AF800404270474FF00000704750EA013005D17E
:100B080011F0004008BF6FF0004070474FF0000040
:100B1800704700BF4FEA4102B2F1E04324BFB3F58A
:100B2800001CDCF1FE5C0DD901F0004C4FEAC0025C
:100B38004CEA5070B2F1004F40EB830008BF20F040
:100B48000100704711F0804F21D113F13872BCBFFA
:100B580001F00040704741F480114FEA5252C2F14F
:100B68001802C2F1200C10FA0CF320FA02F018BF98
:100B780040F001004FEAC1234FEAD32303FA0CFCEB
:100B880040EA0C0023FA02F34FEA4303CCE77FEA7A
:100B9800625307D150EA01331EBF4FF0FE4040F4C4
:100BA8004000704701F0004040F0FE4040F4000073
:100BB800704700BF4FF0FF0C1CEAD0521EBF1CEA62
:100BC800D15392EA0C0F93EA0C0F6FD01A4480EAC3
:100BD800010C400218BF5FEA41211ED04FF00063AC
:100BE80043EA501043EA5111A0FB01310CF00040D8
:100BF800B1F5000F3EBF490041EAD3715B0040EAFE
:100C0800010062F17F02FD2A1DD8B3F1004F40EBCD
:100C1800C25008BF20F00100704790F0000F0CF0A0
:100C2800004C08BF49024CEA502040EA51207F3A64
:100C3800C2BFD2F1FF0340EAC250704740F400003F
:100C48004FF00003013A5DDC12F1190FDCBF00F030
:100C580000407047C2F10002410021FA02F1C2F1DE
:100C6800200200FA02FC5FEA310040F1000053EA7A
:100C78004C0308BF20EADC70704792F0000F00F0C8
:100C8800004C02BF400010F4000F013AF9D040EACE
:100C98000C0093F0000F01F0004C02BF490011F462
:100CA800000F013BF9D041EA0C018FE70CEAD15360
:100CB80092EA0C0F18BF93EA0C0F0AD030F0004CE0
:100CC80018BF31F0004CD8D180EA010000F0004094
:100CD800704790F0000F17BF90F0004F084691F052
:100CE800000F91F0004F14D092EA0C0F01D142028C
:100CF8000FD193EA0C0F03D14B0218BF084608D155
:100D080080EA010000F0004040F0FE4040F400009E
:100D1800704740F0FE4040F4400070474FF0FF0C31
:100D28001CEAD0521EBF1CEAD15392EA0C0F93EA78
:100D38000C0F69D0A2EB030280EA010C49024FEACA
:100D4800402037D04FF0805343EA111143EA101383
:100D58000CF000408B4238BF5B0042F17D024FF43B
:100D6800000C8B4224BF5B1A40EA0C00B3EB510F16
:100D780024BFA3EB510340EA5C00B3EB910F24BFFF
:100D8800A3EB910340EA9C00B3EBD10F24BFA3EB84
:100D9800D10340EADC001B0118BF5FEA1C1CE0D14C
:100DA800FD2A3FF650AF8B4240EBC25008BF20F0FF
:100DB800010070470CF0004C4CEA50207F32C2BF53
:100DC800D2F1FF0340EAC250704740F400004FF0F0
:100DD8000003013A37E792F0000F00F0004C02BF21
:100DE800400010F4000F013AF9D040EA0C0093F0EB
:100DF800000F01F0004C02BF490011F4000F013B45
:100E0800F9D041EA0C0195E70CEAD15392EA0C0FAC
:100E180008D142027FF47DAF93EA0C0F7FF470AFE4
:100E2800084676E793EA0C0F04D14B023FF44CAF27
:100E380008466EE730F0004C18BF31F0004CCAD1BC
:100E480030F000427FF45CAF31F000437FF43CAFF8
:100E58005FE700BF4FF0FF3C06E000BF4FF0010C1A
:100E680002E000BF4FF0010C4DF804CD4FEA4002FC
:100E78004FEA41037FEA226C18BF7FEA236C11D046
:100E880001B052EA530C18BF90EA010F58BFB2EBF9
:100E9800030088BFC81738BF6FEAE17018BF40F079
:100EA800010070477FEA226C02D15FEA402C05D12D
:100EB8007FEA236CE4D15FEA412CE1D05DF8040BB2
:100EC800704700BF844608466146FFE70FB5FFF745
:100ED800C9FF002848BF10F1000F0FBD4DF808EDFD
:100EE800FFF7F4FF0CBF012000205DF808FB00BFEE
:100EF8004DF808EDFFF7EAFF34BF012000205DF848
:100F080008FB00BF4DF808EDFFF7E0FF94BF012094
:100F180000205DF808FB00BF4DF808EDFFF7D2FF91
:100F280094BF012000205DF808FB00BF4DF808EDD4
:100F3800FFF7C8FF34BF012000205DF808FB00BFA1
:100F480042000ED2B2F1FE4F0BD34FF09E03B3EB2B
:100F5800126209D44FEA002343F0004323FA02F057
:100F680070474FF00000704712F1610F01D1420243
:100F780002D14FF0FF3070474FF00000704700BFBC
:100F88007047000038B50E4B054618784FF47A7351
:100F9800B3FBF0F30B4A1068B0FBF3F000F080F8F5
:100FA800044658B90F2D09D8024629464FF0FF309C
:100FB80000F042F8044B20461D6038BD012038BDC2
:100FC800000000200800002004000020074A08B59F
:100FD8001368032043F01003136000F01BF800208F
:100FE800FFF7D0FFFFF7CCFF002008BD002002402C
:100FF800034A044B11681B780B441360704700BF09
:10100800A800002000000020014B1868704700BFAE
:10101800A8000020074A0002D36800F4E06023F427
:10102800E0631B041B0C43F0BF6343F4003303432A
:10103800D360704700ED00E0174B30B5DC68C4F3AF
:101048000224C4F10703251D042B28BF0423062D01
:101058004FF0010598BF002405FA03F303F1FF33AD
:1010680088BF033C1940A14005FA04F4013C224022
:10107800002842EA01024FEA0212AFBF00F16040C5
:10108800064B00F00F00D2B2A5BFD2B200F5614006
:101098001A5480F8002330BD00ED00E014ED00E0A4
:1010A8000138B0F1807F0AD2F021064B064A586019
:1010B80082F823100020072298601A6070470120E8
:1010C800704700BF10E000E000ED00E02DE9F74FA9
:1010D800002216466C4F6D4BDFF8B8E1DFF8B8C157
:1010E8004FF001080C6808FA06F808EA0404A0455D
:1010F80040F085804D68122D00F0B78000F28D8099
:10110800022D00F0AF8000F28180002D00F0918068
:10111800012D00F0A5804FF00F09FF2C93BF8246E8
:1011280006F18045083DD0F800B092BFB500D0F870
:1011380004B0AD0009FA05F82BEA080802FA05F52B
:1011480088BF00F1040A48EA0505CAF80050D1F83A
:1011580004A01AF0805F52D0BD6926F0030845F05C
:101168000105BD61BD6908F1804805F001050195DB
:1011780008F5803806F0030B019D4FEA8B0BD8F871
:10118800085009FA0BF925EA0909414DA84271D01E
:1011980005F58065A8426FD005F58065A8426DD039
:1011A80005F58065A8426BD005F58065A84269D031
:1011B80070450CBF0525062505FA0BF545EA090516
:1011C800C8F808501D681AF4803F14BF2543A5438A
:1011D8001D605D681AF4003F14BF2543A5435D6098
:1011E8009D681AF4801F14BF2543A5439D60DD68E0
:1011F8001AF4001F14BF2C4325EA0404DC600136EE
:10120800102E7FF46DAF03B0BDE8F08F032D25D00D
:10121800112D80D1CA6804327DE7654509D012D8FE
:10122800DFF878904D4504D009F580394D457FF4B5
:1012380072AF8A68E2B1012A0CBFC0F81080C0F80A
:101248001480082267E7DFF858904D45F1D009F57A
:1012580080394D45EDD0A9F58019E7E700225AE716
:10126800CA6858E7CA68083255E7CA680C3252E7B4
:10127800042250E700259FE701259DE702259BE70B
:10128800032599E7042597E7001002400004014070
:1012980000080140001C014000002110000011104E
:1012A800000031100AB1016170470904FBE7000032
:1012B80003682DE9F341DB07054610D42B689F0727
:1012C8005ED42B68190700F195802B685A0700F146
:1012D800BF80EA69002A40F02D81002014E0904C7C
:1012E800636803F00C03042B07D0636803F00C0356
:1012F800082B0CD16368DE0309D523689C03DDD570
:101308006B68002BDAD1012002B0BDE8F0816B6870
:10131800B3F5803F10D1236843F480332360FFF78F
:1013280073FE064623689803C8D4FFF76DFE801B3A
:101338006428F7D90320E7E79BB9236823F48033AF
:101348002360236823F480232360FFF75DFE0646AD
:1013580023689903B2D5FFF757FE801B6428F7D995
:10136800E8E7B3F5A02F236803D143F48023236073
:10137800D1E723F480332360236823F48023CDE767
:10138800674C636813F00C0F07D0636803F00C0315
:10139800082B10D16368DA030DD423689B0702D5A4
:1013A8002B69012BAFD123686A6923F0F80343EA5C
:1013B800C203236085E72A695A4B6AB101221A6081
:1013C800FFF722FE064623689F07ECD4FFF71CFEB2
:1013D800801B0228F7D9ADE71A60FFF715FE06460D
:1013E800236898077FF56DAFFFF70EFE801B022874
:1013F800F6D99FE7AA694A4C4B4BDAB101221A6029
:10140800FFF702FE0646636A9B070DD54FF4FA52B2
:10141800464B1B68B3FBF2F3019300BF019B5A1EB6
:101428000192002BF9D150E7FFF7EEFD801B02284F
:10143800E9D97FE71A60FFF7E7FD0646636A9F0769
:101448007FF543AFFFF7E0FD801B0228F6D971E76F
:10145800334CE369D80024D40127E36943F080536F
:10146800E361E36903F080530093009B304E3368D7
:10147800D90518D5EB68012B26D1236A43F001035F
:101488002362FFF7C1FD41F288368046236A9B0735
:101498003FD5002F3FF41DAFE36923F08053E3618C
:1014A80017E70027E2E7336843F480733360FFF7F8
:1014B800ABFD80463368DA05DCD4FFF7A5FDA0EB69
:1014C80008006428F6D935E7ABB9236A41F28838B1
:1014D80023F001032362236A23F004032362FFF746
:1014E80093FD0646236A9807D3D5FFF78DFD801B29
:1014F8004045F7D91EE7052B236A03D143F00403BF
:101508002362BAE723F001032362236A23F004036A
:10151800B6E7FFF779FDA0EB0800B042B6D909E7B6
:1015280000100240000042428004424208000020AD
:1015380000700040224C636803F00C03082B3FF452
:10154800E2AE00231F4E022A33602BD1FFF75CFD69
:101558000746236899011FD42B6AB3F5803F05D14C
:101568006268A96822F400320A436260696A6268A4
:101578000B4322F474121343636001233360FFF7B3
:1015880043FD054623689A013FF5A7AEFFF73CFDEA
:10159800401B0228F6D9CDE6FFF736FDC01B02280E
:1015A800D7D9C7E6FFF730FD054623689B017FF5CD
:1015B80094AEFFF729FD401B0228F6D9BAE600BF12
:1015C800001002406000424230B5194B87B002ACAF
:1015D80003F11005224618685968083303C2AB4264
:1015E8001446F7D101238DF80430022311498DF8F0
:1015F80005304B6803F00C02082A17D1C3F3834265
:1016080006A80244DB0312F8102C0CD54B680A48D4
:10161800C3F34043504306AA134413F8143CB0FBE9
:10162800F3F007B030BD05485043FAE70248F8E741
:10163800743700080010024000127A0000093D00CB
:10164800544A2DE9F0411368054603F007038B421D
:101658000E462AD329688C0734D4CA0747D44D4A82
:10166800136803F007039E42C0F082802A684A4C40
:1016780012F0040F40F08780130706D563682A69C3
:1016880023F4605343EAC2036360FFF79DFF636876
:10169800424AC3F30313D35CD840414B186000207F
:1016A800FFF770FC0020BDE8F081136823F0070302
:1016B8000B431360136803F007039942CAD0012053
:1016C800BDE8F081344B11F0040F1EBF5A6842F494
:1016D800E0625A60080742BF5A6842F460525A6092
:1016E8005A68A86822F0F00202435A60B5E76A68AF
:1016F800294C012A23681CD113F4003FDFD063680A
:1017080041F2883823F0030313436360FFF77CFC3E
:101718006B680746012B14D1636803F00C03042B94
:101728009DD0FFF771FCC01B4045F5D90320BDE8EB
:10173800F081022A02D113F0007FDFE713F0020FD5
:10174800DCE7022B0FD1636803F00C03082B86D06B
:10175800FFF75AFCC01B4045F5D9E7E7FFF754FCF3
:10176800C01B4045E2D8636813F00C0FF6D176E74A
:10177800136823F0070333431360136803F0070368
:101788009E429CD172E76368E96823F4E0630B43E7
:10179800636071E70020024000100240DF37000854
:1017A80008000020044B054A5B68C3F30223D35C9E
:1017B800034A1068D840704700100240EF3700080D
:1017C80008000020044B054A5B68C3F3C223D35CBE
:1017D800034A1068D840704700100240EF370008ED
:1017E800080000202DE9F0410446884617461D46AA
:1017F800069E2268936838EA03030CBF012300237E
:101808009F4202D10020BDE8F0816B1CF2D055BB8D
:1018180023685A6822F0E0025A606268B2F5827F53
:101828000AD1A268B2F5004F02D0B2F5806F03D199
:101838001A6822F040021A60A26AB2F5005F09D164
:101848001A6822F400521204120C1A601A6842F440
:1018580000521A60012384F851300023032084F8D1
:101868005030BDE8F081FFF7CFFB801B8542C0D820
:10187800CEE713B50B460092802100220446FFF7FD
:10188800B1FF20B10320636D43F02003636502B00C
:1018980010BD2DE9F043994690F8503085B0012BE2
:1018A80004460D4616460C9F00F0EE80012380F892
:1018B8005030FFF7A9FB94F851308046DBB2012B7A
:1018C80061680AD0B1F5827F40F0DC80A268002A06
:1018D80040F0D880042B40F0D580002D4ED0002E4B
:1018E8004CD0B9F1000F49D094F85130A663012BC0
:1018F80004BF052384F851300023636523646364BF
:101908002368A4F83E90A4F836901A68A4F83C908E
:10191800500658BF1A68256358BF42F04002A4F821
:10192800349058BF1A60E268B2F5006F5DD119B102
:10193800E28E92B2012A06D135F8022BDA60E38EE4
:10194800013B9BB2E3864FF00109E38E9BB2BBB922
:10195800E38F9BB2A3B9CDF800803B460122022158
:101968002046FFF73FFF002835D14246394620463A
:10197800FFF77FFF00287AD02023636501202BE042
:10198800B9F1000F0FD0E38E9BB263B123689A6858
:10199800910708D54FF0000935F8022BDA60E38E7D
:1019A800013B9BB2E386E38F9BB263B123689A68DD
:1019B800D20708D54FF00109DB6826F8023BE38F10
:1019C800013B9BB2E387781CBFD0FFF71DFBA0EB60
:1019D80008008742B9D80320012384F85130002336
:1019E80084F8503005B0BDE8F08319B1E28E92B2A8
:1019F800012A06D115F8012B1A73E38E013B9BB21D
:101A0800E3864FF00109E38E9BB21BB9E38F9BB2CB
:101A1800002BA0D0B9F1000F0FD0E38E9BB263B1B9
:101A280023689A68910708D54FF000092A7801358C
:101A38001A73E38E013B9BB2E386E38F9BB26BB1D3
:101A480023689A68D20709D54FF00109DB68013687
:101A580006F8013CE38F013B9BB2E3877B1CD2D0A5
:101A6800FFF7D2FAA0EB08008742CCD8B3E7A36807
:101A7800002BB1D123680390DA6803929B68039323
:101A8800039BA9E70220A7E70220ABE710B50446AD
:101A9800002834D00023836290F851300BB900F04D
:101AA800F5FA0223216884F851300B68A06823F006
:101AB80040030B606368A2690343E068034320693D
:101AC800034360690343E0690343206A0343A06A50
:101AD800034302F4007003430B60120C636A02F0C4
:101AE80004021A43E36A4A600B61CB69002023F4BD
:101AF8000063CB610123606584F8513010BD01207B
:101B080010BD00002DE9F0470568C2682B6901691E
:101B180023F4405313432B618368EA680B434169FC
:101B280022F4B05222F00C020B431343EB606B69B2
:101B3800826923F4407313436B61404B81469D4295
:101B48004FF0190446D1FFF73DFE04FB00F3D9F826
:101B580004604FF06408B600B3FBF6F3B3FBF8F388
:101B68001E01FFF72FFE6043D9F804309B00B0FB3D
:101B7800F3F7FFF727FE6043D9F804309B00B0FB6A
:101B8800F3F3B3FBF8F308FB13731B013233B3FB16
:101B9800F8F303F0F007FFF715FE6043D9F80420C7
:101BA8009200B0FBF2FAFFF70DFE6043D9F804305B
:101BB8009B00B0FBF3F3B3FBF8F308FB13A31B0183
:101BC8003233B3FBF8F303F00F033B433344AB600A
:101BD800BDE8F087FFF7E6FD04FB00F3D9F80460E1
:101BE8004FF06408B600B3FBF6F3B3FBF8F31E013D
:101BF800FFF7D8FD6043D9F804309B00B0FBF3F73A
:101C0800FFF7D0FD6043D9F804309B00B0FBF3F335
:101C1800B3FBF8F308FB13731B013233B3FBF8F380
:101C280003F0F007FFF7BEFD6043D9F804209200E7
:101C3800B0FBF2FAFFF7B6FDB7E700BF0038014086
:101C4800F8B504460E4617461D4621680B6836EA65
:101C5800030301D10020F8BD6B1CF7D095B92368A8
:101C68000320DA6822F4D072DA605A6922F001029D
:101C78005A61202384F8393084F83A30002384F8F4
:101C88003830F8BDFFF7C0F9C01B8542DDD2E6E762
:101C980010B5044640B390F8393003F0FF021BB981
:101CA80080F8382000F050FD2423226884F8393069
:101CB800D368204623F40053D360FFF723FF23683B
:101CC80000201A6922F490421A615A6922F02A0205
:101CD8005A61DA6842F40052DA602023E06384F83B
:101CE800393084F83A3010BD012010BD2DE9F0419B
:101CF8001F4690F839300446202B0D4690464ED1A9
:101D0800002949D0002A47D090F83830012B46D016
:101D1800012380F838300023C363212380F8393049
:101D2800FFF772F90646A4F82480A4F82680E38C0D
:101D38009BB26BB93B46324640212046FFF780FFF5
:101D4800A8B9202384F8380084F83930BDE8F08138
:101D5800E38C3246013B9BB2E384A3688021B3F550
:101D6800805F20463B460ED1FFF76AFF10B1032083
:101D7800BDE8F0812B882268C3F308035360236908
:101D880043B90235D3E7FFF75BFF0028EFD123689B
:101D98002A785A600135CAE70120BDE8F08102209F
:101DA800BDE8F0810023834200D1704700BF00BF27
:101DB80000BF00BF00BF00BF00BF00BF00BF00BF23
:101DC80000BF00BF00BF00BF00BF00BF00BF00BF13
:101DD80000BF00BF00BF00BF00BF00BF00BF00BF03
:101DE80000BF00BF00BF00BF00BF00BF00BF00BFF3
:101DF80000BF00BF00BF00BF00BF00BF00BF00BFE3
:101E080000BF00BF00BF00BF00BF00BF00BF00BFD2
:101E180000BF00BF00BF00BF00BF00BF00BF00BFC2
:101E280000BF00BF00BF00BF00BF00BF00BF00BFB2
:101E38000133B8E70146002208B58A4200D108BD3F
:101E48004FF47A70FFF7AEFF0132F6E710B590B0A5
:101E58002822002106A800F00DFD0021142201A867
:101E680000F008FD4FF480330122022407930E93FB
:101E78004FF4E01306A806920A920F930D94FFF709
:101E880017FA0F234FF4806201930023214601A81B
:101E98000294039304920593FFF7D2FB10B010BD90
:101EA80083B5334DFFF792F8FFF7D0FF00F030FC11
:101EB80000F0C4F900F01EFB2E4800F057FD009515
:101EC80041F288334FF47A220021012000F09CFB74
:101ED800294F2A4E002440F6B830FFF7ABFF2346BF
:101EE800224621462046009400F08EFB204600F052
:101EF80084FB0146384600F0C5FC40F6B830FFF7D1
:101F080099FF41F288334FF47A2221460096012046
:101F180000F07AFB204600F070FB0146184800F0FC
:101F2800B1FC40F6B830FFF785FF2346224621462C
:101F38002046009400F068FB204600F05EFB014656
:101F4800104800F09FFC40F6B830FFF773FF2146B9
:101F580041F288334FF47A220095012000F054FBB7
:101F6800204600F04AFB0146074800F08BFCB1E729
:101F7800404B4C00843700088B370008C0B4B3FFCF
:101F8800A0370008B5370008CA37000810B504465E
:101F9800C0B200F015FC204610BD70477047FEE740
:101FA800FEE7FEE7FEE7704770477047FFF720B887
:101FB8000020704770B50E4615460C46A31B9D427F
:101FC80001DC284670BD14F8010BFFF7DFFFF5E7C9
:101FD800094B0246196809B9084919606946186821
:101FE80002448A4281BF0C22054B4FF0FF301A6031
:101FF80098BF1A60704700BF90000020740100204D
:10200800700100204FF0FF3070474FF4005300205C
:102018004B60704701207047002070470F4B1A68CB
:1020280042F001021A6059680D4A0A405A601A685B
:1020380022F0847222F480321A601A6822F4802214
:102048001A605A6822F4FE025A604FF41F029A601E
:102058004FF00062034B9A60704700BF00100240C7
:102068000000FFF800ED00E038B50546064C0246D2
:1020780008212046FFF716F92A462046BDE83840D1
:102088000221FFF70FB900BF0008014010B5044650
:1020980086B01022002102A800F0ECFB2268174B42
:1020A8009A4228D103F5EC33DA6902A942F4804256
:1020B800DA61DA69124802F480420092009A9A6959
:1020C80042F008029A619B6903F008030193019B9F
:1020D8004FF4204302930223039303230593FEF74F
:1020E800F5FF4FF480430293002302A904480393A9
:1020F8000493FEF7EBFF06B010BD00BF00380040A8
:10210800000C0140000000002DE970430546084618
:10211800FEF7D8F90022304BFEF764FBFEF7FAFC15
:102128004FF08441FEF746FDFEF7DEF922A3D3E91E
:102138000023FEF72DFA22A3D3E90023FEF728FA9D
:1021480021A3D3E9002380468946FEF74BFB234BA6
:102158000022FEF769F8FEF7DDFC0123204E214935
:1021680073550446FEF7E2FE98B119A3D3E900239C
:1021780040464946FEF736FB184B0022FEF754F856
:10218800FEF7C8FC0023174973550446FEF7CEFE38
:1021980068B900212046FEF7ABFE10B10020BDE86B
:1021A80070832046FEF7CCFEC0B2BDE870831F20C6
:1021B800BDE87083AFF30080CC3B7F669EA0F63FFE
:1021C8008FC2F5285C8FD23F0AD7A3703D0AC73F5C
:1021D800CDCCCCCCCCCCD43F00408F400000E03FED
:1021E8000C0000200000F841B0FA80F210B5044657
:1021F80052094FF480510548FFF754F824B1BDE85F
:1022080010406420FFF7CEBD10BD00BF000C014098
:1022180010B50C4620B9BDE810400846FFF724BFAA
:102228000A4605480421FFF73DF82246BDE810405C
:1022380001210148FFF736B800080140384B2DE965
:10224800F0419A6986B042F004029A619A690024C2
:1022580002F004020092009A9A69012542F00802ED
:102268009A619B694FF4805703F008030193019B1F
:10227800032302A92B480593029703950494FEF7BC
:1022880025FF082302260DEB030127480293FEF7DA
:102298001DFF02A924480296FEF718FF04234FF4F5
:1022A800006802A920480293FEF710FF02A91E4801
:1022B8000295FEF70BFF2046FFF7D6FE214628467B
:1022C800FFF7A6FF02A91748CDF808800495FEF786
:1022D800FDFE224641461348FEF7E4FF2A46114810
:1022E8003946FEF7DFFF4FF482731048104A8460C6
:1022F80080E80C004FF4007383611023C361072347
:10230800C46006614561046244628462C362FFF787
:10231800BDFB08B1FFF741FE06B0BDE8F08100BF84
:1023280000100240000C014000080140CC000020D1
:102338000038004037B50E4C0B0E637060F07F001C
:102348000B0C2070A37001200B0AE3702171FFF7BA
:102358004BFF6423074D00932A4605232146064870
:10236800FFF797FA0020FFF73FFF287803B030BD4A
:102378009900002094000020CC00002000000000FC
:10238800F8B50446FFF7C0FE06460146324800F09D
:1023980079FA0025022363F38D2506F01F0363F302
:1023A8004915002C63F304050CBF30205020294642
:1023B800FFF7C0FF3046FEF785F80022274BFDF7F0
:1023C80035FF0022264BFEF7E3F8264D06462A5D28
:1023D8000F4662BB1AA1D1E9000132463B46FEF71F
:1023E800D7F819A3D3E90023FEF7D2F8FEF76AFB62
:1023F8001D4B002143F82400052363F3030163F315
:102408000611032363F3CA11022341F4005163F355
:10241800D0312B5D03F0FF026BB141F40031002C89
:102428000CBF6C207C20FFF785FF0020F8BD08A1B9
:10243800D1E90001D1E762F35141F0E7AFF3008041
:1024480085E59E4658EEF13F664018B0DA1886409A
:1024580009CB3D8DB0DCE33F093800080000F03FB0
:102468000000A03F0C000020C40000202DE9F3412B
:1024780000264FF064081B4C1B4D1C4F266026712C
:1024880020700120FFF7B0FE2A4621460523CDF82B
:1024980000803846FFF7FDF93046FFF7A5FE01201A
:1024A800FFF780FC0120FFF79FFE2A4621460523FF
:1024B800CDF800803846FFF7ECF93046FFF794FE78
:1024C800AC786B78240444EA03642B7908481C43ED
:1024D800EB7844EA0324214600F0D4F9204602B000
:1024E800BDE8F0819900002094000020CC00002075
:1024F800F7370008F8B500240523254663F30305DC
:1025080063F306150323012663F3CA150223304635
:1025180045F4005563F3D035FFF7A8FF082120469E
:10252800FFF708FF21462020FFF704FF21462D2052
:10253800FFF700FF21462120FFF7FCFE4FF47A71D8
:102548002046FFF71DFF6C20FFF790FF0543294643
:102558006C20FFF7EFFE21464020FFF7EBFE2146F7
:102568004D20FFF7E7FE21464120FFF7E3FE4FF439
:102578007A713046FFF704FF7C20FFF777FFA32727
:1025880045EA00017C20FFF7D5FE39463420FFF7E5
:10259800D1FE39465420FFF7CDFE21462420FFF70F
:1025A800C9FE31462A20FFF7C5FE21462320FFF742
:1025B800C1FE31462B20FFF7BDFE21462520FFF73F
:1025C800B9FE21464420FFF7B5FE31464A20FFF701
:1025D800B1FE21464320FFF7ADFE31464B20FFF701
:1025E800A9FE21464520FFF7A5FE3520FFF73EFF4F
:1025F800BDE8F8405520FFF739BF00280CBF21205F
:102608004120FFF733BF00002DE9F04701290746B5
:102618000C4616461D46DDF820A065D81846FDF77D
:1026280041FF33A3D3E90023FEF742FA4FF6FF73C5
:10263800002818BF1D463046FDF734FF2EA3D3E906
:102648000023FEF735FA2E4BDFF8BC90002818BFA0
:102658001E46DFF8B8802B4B49F8245043F8245025
:1026680048F824604FB3002E3ED0002C29460CBFFA
:1026780026204620FFF75EFE002C59F824100CBFD8
:1026880028204820FFF756FE002C58F824100CBFCD
:1026980027204720FFF74EFE002C0CBF21204120A9
:1026A800FFF7E4FE002C00EB0A0108BF2D20BDE86F
:1026B800F04718BF4D20FFF73DBE20460121FFF728
:1026C800A7FD002C0CBF21204120FFF7CFFE002CD6
:1026D80001460CBF2D204D20FFF72CFE3946204621
:1026E800BDE8F047FFF794BDBDE8F087AFF3008081
:1026F80000000000E0FFEF400000000080FF5F41A5
:1027080000FE7F00AC00002024010020B40000205F
:1027180008B54FF4E13E0A480A4B0C2280E808400D
:10272800002342618360C36003618361C361FFF773
:10273800AFFA18B1BDE80840FFF72FBC08BD00BFCD
:10274800300100200038014010B5044686B0102240
:10275800002102A800F08EF82268174B9A4228D16F
:1027680003F558439A6902A942F480429A619A692A
:10277800124802F480420092009A9A6942F00402D8
:102788009A619B6903F004030193019B4FF4007362
:1027980002930223039303230593FEF797FC4FF458
:1027A80080630293002302A9044803930493FEF76D
:1027B8008DFC06B010BD00BF003801400008014084
:1027C80007B502A901F8010D4FF6FF73012203486E
:1027D800FFF78CFA03B05DF804FB00BF300100205E
:1027E800002103E00B4B5B58435004310A480B4B64
:1027F80042189A42F6D30A4A02E0002342F8043B00
:10280800084B9A42F9D3FFF709FC00F00FF8FFF7DD
:1028180047FB7047BC380008000000207400002007
:102828007400002074010020FEE7000070B5002548
:102838000C4E0D4CA41BA410A54209D100F08AFF30
:1028480000250A4E0A4CA41BA410A54205D170BD50
:1028580056F8253098470135EEE756F82530984761
:102868000135F2E7B4380008B4380008B438000875
:10287800B838000803460244934200D1704703F871
:10288800011BF9E70FB40A4B13B51C6824B1A369FF
:1028980013B9204600F024FA05AB049AA168204633
:1028A800019300F0DDFB02B0BDE8104004B07047B2
:1028B8001000002070B50E46054618B183690BB9A3
:1028C80000F00EFAAB69AC6813B9284600F008FAB4
:1028D800234B9C4217D16C68A3891B071DD523691C
:1028E800DBB1013EA36816F8011F013BA360E9B9FB
:1028F800002B2EDA22460A21284600F03FF8013044
:1029080011D00A2070BD174B9C4201D1AC68E3E797
:10291800154B9C4208BFEC68DEE72146284600F0CC
:102928007FF80028DDD04FF0FF3070BD002B04DAAF
:10293800A269934206DB0A2904D023685A1C226044
:102948001970CFE72246284600F018F80130C9D19F
:10295800E9E70A2023685A1C2260187070BD00BF7E
:102968003C3800085C3800081C380008024B014657
:102978001868FFF79FBF00BF10000020F8B50E468B
:102988001446054618B183690BB900F0A9F9214B23
:102998009C422AD16C68A369A360A3891A072ED523
:1029A800236963B323692068F6B2C01A636937469E
:1029B800984204DB2146284600F028F928BBA36882
:1029C8000130013BA36023685A1C22601E706369B2
:1029D800984204D0A389DB0719D50A2E17D12146BE
:1029E800284600F013F990B10FE00B4B9C4201D13F
:1029F800AC68D0E7094B9C4208BFEC68CBE721469E
:102A0800284600F00DF80028CCD04FF0FF373846A4
:102A1800F8BD00BF3C3800085C3800081C380008C6
:102A2800324B70B51D6806460C4625B1AB6913B923
:102A3800284600F055F92E4B9C420FD16C68B4F92A
:102A48000C309AB215072CD4D00611D40922326062
:102A580043F04003A3814FF0FF3070BD254B9C42EB
:102A680001D1AC68EBE7244B9C4208BFEC68E6E771
:102A7800510712D5616B41B104F14403994202D068
:102A8800304600F01BFA00236363A38923F0240374
:102A9800A3810023636023692360A38943F00803AB
:102AA800A38123694BB9A38903F42073B3F5007F8D
:102AB80003D02146304600F0C1F9A28912F0010383
:102AC8000CD00023A36063695B42A361236953B9F7
:102AD800B4F90C3013F08000BAD170BD920758BF1A
:102AE8006369A360F2E70020F7E700BF1000002049
:102AF8003C3800085C3800081C3800088A892DE931
:102B0800F041054610070C465AD44B68002B05DCEB
:102B18000B6C002B02DC0020BDE8F081E66A002E79
:102B2800F9D0002312F480522F682B6033D0606DE7
:102B3800A3895A0705D56368C01A636B0BB1236C68
:102B4800C01A00230246E66A216A2846B047431C99
:102B5800A38906D129681D294BD82B4ACA40D60714
:102B680047D5002262602269D904226004D5421C3C
:102B780001D12B6803B96065616B2F600029CAD049
:102B880004F14403994202D0284600F097F9002046
:102B98006063BDE8F081216A01232846B047411CE3
:102BA800C6D12B68002BC3D01D2B01D0162B01D109
:102BB8002F60B0E7A38943F04003A381BDE8F0810B
:102BC8000F69002FA7D0930718BF00230E6808BF0E
:102BD8004B69A6EB07080F608B60B8F1000F9ADD10
:102BE80043463A46216A2846A66AB047002807DCC9
:102BF800A38943F04003A3814FF0FF30BDE8F08183
:102C08000744A8EB0008E8E70100402038B50B6945
:102C180005460C46DBB118B183690BB900F060F8C2
:102C28000C4B9C4209D16C68B4F90C307BB121463D
:102C38002846BDE83840FFF761BF074B9C4201D1E9
:102C4800AC68F1E7054B9C4208BFEC68ECE7002054
:102C580038BD00BF3C3800085C3800081C38000844
:102C6800014900F0A9B800BF152C0008002310B5D1
:102C7800044603604360836081814366C2810361C7
:102C880043618361194608225C30FFF7F3FD054B69
:102C980024626362044BA362044BE362044B236324
:102CA80010BD00BFE5350008073600083F360008AC
:102CB8006336000870B568254A1E55430E4605F16F
:102CC800740100F047F9044640B1002180E8420051
:102CD8000C30A06005F16802FFF7CCFD204670BDFE
:102CE800836910B5044633BB8364C3640365124B20
:102CF800124A1B688262984204BF0123836100F074
:102D08001FF86060204600F01BF8A060204600F025
:102D180017F80022E06004216068FFF7A7FF01228E
:102D28000921A068FFF7A2FF02221221E068FFF73D
:102D38009DFF0123A36110BD7C380008692C0008A1
:102D4800F8B51C4B07461E68B36913B93046FFF740
:102D5800C7FF4836B4687368013B03D5336833B19D
:102D68003668F7E7B4F90C506DB16834F4E704211C
:102D78003846FFF79FFF30600028F1D10C23044646
:102D88003B602046F8BD4FF6FF73E381012365667B
:102D9800A3812560A560656025616561A56108223C
:102DA800294604F15C00FFF765FD6563A563A5642A
:102DB800E564E6E77C3800082DE9F8438046894653
:102DC800002600F1480414B93046BDE8F883A56828
:102DD8006768013F01D52468F5E7AB89012B07D95E
:102DE800B5F90E30013303D029464046C84706439B
:102DF8006835EEE770B50E46B1F90E1090B00029AF
:102E080014461D4607DA00232B60B3891A0610D42E
:102E18004FF480630EE001AA00F046FC0028F2DBC4
:102E2800029A02F47042A2F500535A425A412A60AB
:102E3800EEE740230020236010B070BD8B8973B586
:102E48009D0706460C4607D504F147032360236116
:102E58000123636102B070BD01AB6A46FFF7CAFF88
:102E680000990546304600F075F848B9B4F90C30B9
:102E78009A05EFD423F0030343F00203A381E3E7A9
:102E88000D4BB362A389206043F08003A381009BAC
:102E980020616361019B5BB1B4F90E10304600F00C
:102EA80015FC28B1A38923F0030343F00103A38190
:102EB800A3891D43A581CDE7692C000838B50546CF
:102EC800002943D051F8043C0C1F002BB8BFE4186C
:102ED80000F02CFC1E4A1368104633B96360146076
:102EE8002846BDE8384000F022BCA3420BD921682F
:102EF8006218934201BF1A685B68521822606360C7
:102F08000460EDE713465A680AB1A242FAD9196873
:102F18005818A0420BD12068014458188242196001
:102F2800DED110685268014419605A60D8E702D9A6
:102F38000C232B60D4E7206821188A4201BF11684E
:102F480052680918216062605C60C9E738BD00BF3B
:102F5800A000002070B5CD1C25F0030508350C2D08
:102F680038BF0C25002D064601DBA94203D90C23E6
:102F78003360002070BD00F0D9FB234A1468214655
:102F880091B9224C23681BB9304600F017FB20602A
:102F98002946304600F012FB431C26D10C2330464C
:102FA800336000F0C4FBE4E70B685B1B1AD40B2BFF
:102FB8000FD90B60CC18CD50304600F0B8FB04F1A7
:102FC8000B00231D20F00700C31A1BD05A42E25001
:102FD80070BD8C420BBF63684B681360636018BF99
:102FE8000C46E9E70C464968CAE7C41C24F0030408
:102FF800A04205D0211A304600F0E0FA0130CDD0C9
:103008002560D9E770BD00BFA0000020A400002003
:10301800936810B4013B002B936008DA9469A342CB
:1030280002DBCBB20A2B02D110BCFFF7A7BC136896
:10303800581C10601970C8B210BC7047F8B5064625
:103048000F461446D518AC4201D1002007E03A4695
:1030580014F8011B3046FFF7DBFF431CF3D1F8BD22
:103068002DE9F04F9DB00C4617460393064618B15C
:1030780083690BB9FFF734FE7C4B9C4257D17468C7
:10308800A38918075DD52369002B5AD0002309931B
:1030980020238DF8293030234FF0010B8DF82A308A
:1030A800B846454615F8013B002B55D1B8EB070A41
:1030B8000BD053463A4621463046FFF7BFFF013052
:1030C80000F0C480099B5344099398F80030002B02
:1030D80000F0BC8000234FF0FF3204930793059261
:1030E80006938DF853301A9305222978604800F02A
:1030F8000FFB05F10108049B002831D1D90644BF14
:1031080020228DF853201A0744BF2B228DF8532014
:103118002A782A2A2CD000210A20079AA84698F84B
:1031280000300135303B092B6DD971B326E0514B86
:103138009C4201D1B468A3E74F4B9C4208BFF46896
:103148009EE721463046FFF76BFC00289ED04FF0E3
:10315800FF301DB0BDE8F08F252BA7D0A846A0E70B
:10316800434A4546801A0BFA00F018430490BBE71F
:10317800039A111D12680391002A01DB079204E0EB
:10318800524243F002030792049398F800302E2B22
:1031980010D198F8013008F101012A2B37D1039B8F
:1031A80008F102081A1D1B680392002BB8BF4FF0E4
:1031B800FF330593314D032298F80010284600F09C
:1031C800A7FA40B14023401B03FA00F0049B08F122
:1031D80001080343049398F800100622284808F1D0
:1031E80001078DF8281000F093FA002834D0254BF9
:1031F80003BB039B073323F0070308330393099B9F
:103208004B4409934CE700FB0232012186E7002377
:103218000A2518460593884698F800200131303A67
:10322800092A03D9002BC5D00590C3E705FB002068
:103238000123F0E703AB00932246134B04A9304661
:10324800AFF30080B0F1FF3F8146D8D1A3895B0678
:103258003FF57DAF09987CE703AB009322460A4B04
:1032680004A9304600F08AF8ECE700BF3C380008B3
:10327800803800085C3800081C38000886380008C8
:103288008A38000800000000453000082DE9F047A2
:1032980091461F468A680B6906469342B8BF134693
:1032A800C9F8003091F843200C46DDF8208012B1AF
:1032B8000133C9F800302368990642BFD9F80030B5
:1032C8000233C9F80030256815F0060507D104F166
:1032D800190AE368D9F800209B1A9D422ADB94F862
:1032E80043302268003318BF012392062FD404F11B
:1032F800430239463046C047013022D02368E5688A
:1033080003F00603042B18BF0025D9F800204FF05E
:10331800000908BFAD1AA368226908BF25EAE57548
:103328009342C4BF9B1AED181A344D451BD1002097
:10333800BDE8F0870123524639463046C047013080
:1033480003D14FF0FF30BDE8F0870135C1E73020E9
:10335800E11881F843005A1C94F8451022440233BE
:1033680082F84310C3E70123224639463046C04756
:103378000130E6D009F10109D7E700002DE9F04353
:1033880017460A7E85B06E2A984606460C460C9B60
:1033980001F1430E00F0BC801AD8632A2ED00AD857
:1033A800002A00F0C880582A00F08A8004F14205FB
:1033B80084F842202AE0642A01D0692AF6D12168DB
:1033C8001A6811F0800F23D0111D1960136827E0C7
:1033D800732A00F0B48008D86F2A2AD0702AE5D161
:1033E8000A6842F020020A6003E0752A21D0782A90
:1033F800DCD178226F4984F8452064E01A6801F12D
:103408004205111D1960136884F842300123A3E0B6
:1034180011F0400F02F104011960D7D0B2F9003061
:10342800002B03DA2D225B4284F8432062490A22EA
:1034380017E02068196810F0800F03D0081D186085
:103448000B6806E010F0400F01F104001860F7D097
:103458000B886F2A14BF0A2208225749002084F8D3
:1034680043006568002DA560C0F29C80206820F0AC
:1034780004002060002B3FD1002D40F09580754658
:10348800082A0BD12368DA0708D5236962689A42AB
:10349800DEBF302305F8013C05F1FF35AEEB05032F
:1034A8002361CDF800803B4603AA21463046FFF74A
:1034B800EDFE013055D14FF0FF3005B0BDE8F08387
:1034C80081F845203C492268186812F0800F00F105
:1034D80004051D6001D0036802E05506FBD503888A
:1034E800D00744BF42F0200222601BB9226822F0B4
:1034F800200222601022B1E77546B3FBF2F002FB0E
:103508001033CB5C05F8013D03460028F5D1B7E739
:1035180008681A6810F0800F496904D0101D1860F7
:103528001368196007E010F0400F02F104001860FA
:103538001368F6D01980002375462361B1E71A682D
:10354800111D1960156800216268284600F0E0F82E
:1035580008B1401B606063682361002384F843302E
:103568009FE723692A4639463046C0470130A2D032
:1035780023689B0707D5002504F11909E368039A16
:103588009B1A9D4205DBE068039B9842B8BF18462A
:1035980093E701234A4639463046C04701308AD06E
:1035A8000135EBE7002BA7D10B7804F1420584F82D
:1035B800423065E7A23800089138000838B5002382
:1035C800054C054608462360FEF702FD431C02D160
:1035D800236803B12B6038BD7001002010B50C467C
:1035E800B1F90E1000F0A4F80028ABBF636DA389F1
:1035F8001B1823F48053ACBF6365A38110BD2DE96C
:10360800F0411F468B890546DB050C46164605D555
:1036180002230022B1F90E1000F068F8A38932469F
:1036280023F48053A381B4F90E103B462846BDE825
:10363800F04100F017B810B50C46B1F90E1000F0C3
:1036480055F8431CA38915BF606523F4805343F4E0
:103658008053A38118BFA38110BDB1F90E1000F0EB
:1036680013B8000038B50546084611460022054C37
:1036780022601A46FEF79EFC431C02D1236803B160
:103688002B6038BD7001002038B50023054C054675
:1036980008462360FEF7B6FC431C02D1236803B139
:1036A8002B6038BD7001002038B50023064C054654
:1036B800084611462360FEF7A8FC431C02D1236884
:1036C80003B12B6038BD00BF7001002038B500235E
:1036D800054C054608462360FEF79CFC431C02D1B6
:1036E800236803B12B6038BD7001002038B505464A
:1036F800084611460022054C22601A46FEF78CFC4B
:10370800431C02D1236803B12B6038BD700100202F
:1037180010B5C9B202449042034601D1002010BD41
:103728001C7801308C42F6D1184610BD704770479E
:1037380038B50546084611460022054C22601A464F
:10374800FEF736FC431C02D1236803B12B6038BD59
:1037580070010020F8B500BFF8BC08BC9E46704751
:0C376800F8B500BFF8BC08BC9E467047D6
:1037740002030405060708090A0B0C0D0E0F1010AE
:1037840061626C653F0D0053544F503120416374A6
:1037940075616C203A20256C640D0A0053544F5017
:1037A400322041637475616C203A20256C640D0AE3
:1037B4000053544F50332041637475616C203A2098
:1037C400256C640D0A0053544F50342041637475C2
:1037D400616C203A20256C640D0A00000000000092
:1037E40000000001020304060708090000000001AC
:1037F40002030476616C7565203A203078253038F0
:103804006C780D0A0072756E5F63757272656E7402
:10381400203A2025640D0A0000000000000000008A
:103824000000000000000000000000000000000094
:103834000000000000000000000000000000000084
:103844000000000000000000000000000000000074
:103854000000000000000000000000000000000064
:103864000000000000000000000000000000000054
:10387400000000000000000014000020232D302B65
:103884002000686C4C00656667454647003031325D
:1038940033343536373839414243444546003031B4
:1038A4003233343536373839616263646566000013
:0438B4000D020008F9
:0438B800E90100081A
:1038BC00010000001000000000A24A0401010000F9
:1038CC0014000020000000003C3800085C380008A0
:1038DC001C38000800000000000000000000000080
:1038EC0000000000000000000000000000000000CC
:1038FC0000000000000000000000000000000000BC
:10390C0000000000000000000000000000000000AB
:10391C00000000000000000000000000000000009B
:04392C000000000097
:04000005080027E9DF
:00000001FF
